:020000040800F2
:100000002027002045010008CD300008CF3000082F
:10001000D3300008D7300008DB30000800000000B3
:10002000000000000000000000000000DF300008B9
:10003000E130000800000000E3300008E53000086F
:100040005F0100085F0100085F0100085F01000810
:100050005F0100085F010008FF3100085F01000830
:100060005F0100085F0100085F0100085F010008F0
:100070005F0100085F0100085F0100085F010008E0
:100080005F0100085F0100085F0100085F010008D0
:100090005F0100085F0100085F0100084F3200089F
:1000A0005F0100085F0100085F0100085F010008B0
:1000B000E73000085F0100085F0100085F010008E9
:1000C0005F0100085F0100085F0100085F01000890
:1000D0005F0100080F3100085F0100085F010008A0
:1000E0005F0100085F0100085F0100085F01000870
:1000F0005F0100085F0100085F0100085F01000860
:100100005F010008073100085F0100085F01000877
:100110005F0100085F0100085F0100085F0100083F
:100120005F0100085F0100085F0100085F0100082F
:10013000DFF80CD009F03AFC004800477D2E00089B
:10014000202700200648804706480047FEE7FEE7D4
:10015000FEE7FEE7FEE7FEE7FEE7FEE7FEE7FEE777
:1001600047020008310100080CB500200190009002
:100170006C48006840F480306A49086000BF6948F4
:10018000006800F4003000900198401C0190009835
:1001900018B90198B0F5A06FF1D16248006800F479
:1001A000003010B10120009001E000200090009884
:1001B000012843D15C48006840F010005A490860AB
:1001C0000846006820F0030008600846006840F018
:1001D0000200086053484068524948600846406839
:1001E00048600846406840F48060486008464068BF
:1001F00020F47C1048600846406840F4E8104860ED
:100200000846006840F08070086000BF45480068FC
:1002100000F000700028F9D04248406820F0030048
:10022000404948600846406840F00200486000BF0E
:100230003C48406800F00C000828F9D10CBD10B50E
:10024000FFF792FF10BD10B53648006840F001007E
:1002500034490860084640683449084031494860DC
:1002600008460068324908402E4908600846006880
:1002700020F4802008600846406820F4FE004860B2
:100280004FF41F008860FFF7DAFF4FF00060294944
:10029000086010BD10B5002100200022214B5B68D2
:1002A00003F00C0121B1042906D0082928D107E068
:1002B000214B224C236027E01F4B204C236023E07E
:1002C000184B5B6803F47010164B5B6803F48032C4
:1002D000022303EB904022B9194B4343174C236090
:1002E0000DE0104B5B6803F4003323B1144B434320
:1002F000124C236003E0104B4343104C236003E097
:100300000D4B0E4C236000BF00BF064B5B68C3F370
:1003100003130C4CE15C094B1B68CB40074C23607A
:1003200010BD000000100240002002400000FFF855
:10033000FFFFF6FE08ED00E000127A00000000204A
:1003400000093D000400002031490143314A116099
:10035000704770B5002100230F22C47804B32D4CE0
:10036000246804F4E064C4F5E064210AC1F10403E4
:10037000CA40447804FA03F1847814402143090107
:10038000254C0678A155047804F01F050124AC40E3
:1003900005786D11AD0005F1E025C5F8004109E0D3
:1003A000047804F01F050124AC401C4D067876113A
:1003B00045F8264070BD1A4A0A400243154B1B1FE0
:1003C0001A60704739B1134A121D12680243114B6B
:1003D0001B1D1A6006E00F4A121D126882430D4B66
:1003E0001B1D1A607047042808D14FF0E0210969ED
:1003F00041F004014FF0E022116107E04FF0E021ED
:10040000096921F004014FF0E022116170470000FA
:100410000000FA050CED00E000E400E080E100E0FF
:1004200080FFFF1F10B5012001F0D2F8002001F07D
:10043000CFF810BD2A49086070472949091F086094
:100440007047274984310860704701460020254ADB
:1004500010884FF67F4210400843224A10807047B0
:10046000014600201F4A10884FF680721040084352
:100470001C4A1080704708B500220092194A2C3A95
:100480000092009A02440092009A116008BD08B5DB
:1004900001460020009013482C3800900098084432
:1004A00000900098008808BD0D489C300068C0B2DC
:1004B00070470C480830008840F0010009490831B5
:1004C000088070470648A0300068C0B270470548F1
:1004D0000830008840F00200024908310880704767
:1004E00004860D422C6C004001684FF6FE721140EC
:1004F00001600021016041608160C1608D498842D6
:1005000008D18C490839496841F00F01894A083AF5
:1005100051608AE087491431884208D185490839F9
:10052000496841F0F001834A083A51607DE0814911
:100530002831884208D17F490839496841F47061FF
:100540007C4A083A516070E07A493C31884208D1CF
:1005500078490839496841F47041764A083A51604F
:1005600063E074495031884208D1724908394968BA
:1005700041F470216F4A083A516056E06D49643188
:10058000884208D16B490839496841F47001694AC9
:10059000083A516049E067497831884208D1654995
:1005A0000839496841F07061624A083A51603CE09C
:1005B0006149884206D1011F096841F00F01021FFD
:1005C000116032E05C491431884208D15A49091F50
:1005D000096841F0F001584A121F116025E05649A0
:1005E0002831884208D15449091F096841F47061D3
:1005F000514A121F116018E04F493C31884208D11E
:100600004D49091F096841F470414B4A121F11609E
:100610000BE049495031884207D14749091F096811
:1006200041F47021444A121F1160704710B5002236
:10063000026847F6F0739A430C6A8B6823430C698F
:1006400023434C6923438C692343CC6923434C6A7D
:1006500023438C6A23431A430260CB6843600B68D0
:1006600083604B68C36010BD002101604160816000
:10067000C160016141618161C16101624162816268
:10068000704721B1026842F00102026004E0026892
:100690004FF6FE731A40026070471AB103680B43AD
:1006A000036002E003688B4303607047416070475A
:1006B0000146486880B2704701460020002201F0E0
:1006C00080531BB11C4B083B1A6802E0194B083BD6
:1006D0001A6802EA01030BB1012000E00020704714
:1006E00000F0805119B11449091F086002E0114956
:1006F00008394860704701460020002201F080530D
:100700001BB10D4B083B1A6802E00A4B083B1A6804
:1007100002EA01030BB1012000E00020704700F065
:10072000805119B10449091F086002E001490839E4
:100730004860704708000240080402400020444915
:100740000860091D0860091D0860091D086041480E
:100750003F4914310860704700213D498279002AE1
:100760003AD00A46126803689A430B461A600A1D7B
:10077000126803689A430B1D1A60027911440A68D3
:1007800003681A430A60324A0832126803689A43BF
:100790002F4B08331A601A1D126803689A432C4BBA
:1007A0000C331A604279102A0ED11A1F126803689E
:1007B0001A43274B08331A601A1D126803681A433C
:1007C000234B0C331A600DE02149427911440A6829
:1007D00003681A430A6005E0027911440A68036855
:1007E0009A430A6070470021016001710C21417138
:1007F0000021817170471649103109680143144A7C
:1008000010321160704701460020114A14321268FC
:100810000A400AB1012000E0002070470C49143161
:1008200008607047014600200022094B1B6803EA5C
:100830000102074B14331B680B4013B10AB10120AE
:1008400000E0002070470249143108607047000042
:1008500000040140FFFF0F0030B943F2DB028100CA
:10086000A1F1C0410A6005E043F2D2028100A1F18A
:10087000C0410A606FF07042411C8900A1F1C04183
:100880000A608100A1F1C041C1F80421704710281D
:100890000AD118214FF020421166402151664FF0D5
:1008A000FC319166D16610E01821F74A11604021B1
:1008B0004FF02042C2F884104FF0FC31F24A083267
:1008C00011604FF02042C2F88C1070471820EE499A
:1008D0002031086000200906C1F8A4004FF0FC3068
:1008E000E94928310860091D0860091D0860704742
:1008F000D0E901121143C2681143026911434269F0
:10090000114382691143C2691143026A1143426A69
:100910001143826A1143C26A1143026B1143026898
:100920009200A2F1C0421160816808290BD10168D0
:100930008900A1F1C041096841F0400201688900C5
:10094000A1F1C0410A60416B0968426B526841EAFB
:100950000211426B926841EA0221426B928941EA9C
:100960000241426B128A41EA0251426B127D41EA16
:100970000261426B926911430268521C9200A2F11B
:10098000C0421160C16AB1F5804F1BD1816B09680B
:10099000826B526841EA0211826B926841EA02213D
:1009A000826B128A41EA0251826B127D41EA026136
:1009B000826B9269114302689200A2F1C042C2F8B0
:1009C000041107E06FF0704201688900A1F1C04195
:1009D000C1F80421704730B500210022002344688B
:1009E00044F0080485682C43C5682C4305692C43F2
:1009F000456944EA4524856944EA4531C469246867
:100A0000C5696D6844EA0524C5692D8944EA054431
:100A1000C5692D7B44EA0562046A2468056A6D682D
:100A200044EA0524056A2D8944EA0544056A2D7BBC
:100A300044EA05630468102C05D14FF02044216678
:100A4000A266E36608E0904C21604FF02044C4F8B1
:100A500088208D4C0C34236030BD016841F01001BA
:100A6000426841EA4221826841EA4231864A2032A4
:100A70001160C1680968C268526841EA0221C2680F
:100A8000128941EA0241C268127B41EA02617E4A50
:100A900028321160016909680269526841EA02213D
:100AA0000269128941EA02410269127B41EA02614C
:100AB000754A2C321160416909684269526841EAFD
:100AC00002214269128941EA02414269127B41EAEC
:100AD00002614FF02042C2F8B0107047002101605F
:100AE0000221416000218160C16001614161816139
:100AF000C16101624FF4805141624900816200216D
:100B0000C16201630F21426B1160426B5160FF2192
:100B1000426B91600F21426BD160426B1161426B5D
:100B200051610021426B91610F21826B1160826BD8
:100B30005160FF21826B91600F21826BD160826BCB
:100B40001161826B51610021826B916170471021AC
:100B50000160002141608160C1600161416181618A
:100B6000FC21C2691160C2695160C2699160C269A9
:100B7000D160026A1160026A5160026A9160026A81
:100B8000D16070470021016041608160FC21C26832
:100B90001160C2685160C2689160C268D160026928
:100BA000116002695160026991600269D160426915
:100BB000116042695160426991604269D160704739
:100BC00051B18200A2F1C042126842F001038200DA
:100BD000A2F1C042136009E08200A2F1C042126893
:100BE0002A4B1A408300A3F1C0431A60704799B1A1
:100BF000102808D14FF02042126E42F004024FF04C
:100C000020431A661DE0204A126842F004024FF0A9
:100C10002043C3F8802014E0102809D14FF020426F
:100C2000126E1A4BDB1E1A404FF020431A6608E082
:100C3000154A1268154BDB1E1A404FF02043C3F8CB
:100C40008020704748B110492031096841F0040103
:100C50004FF02042C2F8A01009E00B49203109688A
:100C60000A4AD21E11404FF02042C2F8A01070472D
:100C7000B9B110280CD14FF02042126E42F0400260
:100C80004FF020431A661FE0800000A0FEFF0F0017
:100C9000724A126842F040024FF02043C3F88020AD
:100CA00012E0102808D14FF02042126E6C4B1A400F
:100CB0004FF020431A6607E0684A1268684B1A40F2
:100CC0004FF02043C3F880207047014600201029D0
:100CD00003D14FF02042506F02E0604A1432106896
:100CE000704710B5F2B1102807D14FF020435B6E6A
:100CF0000B434FF02044636632E0B0F5807F08D1AB
:100D0000564B1B1D1B680B434FF02044C4F8843026
:100D100026E0524B24331B680B434FF02044C4F8A9
:100D2000A4301DE0102807D14FF020435B6E8B43A9
:100D30004FF02044636613E0B0F5807F08D1474B45
:100D40001B1D1B688B434FF02044C4F8843007E020
:100D5000424B24331B688B434FF02044C4F8A4302B
:100D600010BD10B5024600200023102A03D14FF019
:100D70002044636E09E0B2F5807F03D1374C241D17
:100D8000236802E0354C2434236803EA01040CB1E3
:100D9000012000E0002010BD102807D14FF02042B4
:100DA000526E8A434FF020435A6613E0B0F5807FBD
:100DB00008D12A4A121D12688A434FF02043C3F813
:100DC000842007E0254A243212688A434FF02043EA
:100DD000C3F8A420704770B5024600200023002409
:100DE0000025102A03D14FF02046736E09E0B2F5BA
:100DF000807F03D1194E361D336802E0174E24362A
:100E0000336803EA010403EAD10514B10DB10120EE
:100E100000E0002070BD102808D14FF02042526E33
:100E200022EAD1024FF020435A6615E0B0F5807FE8
:100E300009D10A4A121D126822EAD1024FF020435A
:100E4000C3F8842008E0054A2432126822EAD1025D
:100E50004FF02043C3F8A42070470000800000A09A
:100E6000BFFF0F0010B50446CC48844208D10121D1
:100E7000042000F093FB0021042000F08FFB46E0EB
:100E8000C748844208D10121082000F087FB0021D7
:100E9000082000F083FB3AE0C248844208D10121D7
:100EA000102000F07BFB0021102000F077FB2EE0EB
:100EB000BD48844208D10121202000F06FFB0021B1
:100EC000202000F06BFB22E0B848844208D10121C9
:100ED000402000F063FB0021402000F05FFB16E0A3
:100EE000B348844208D10121802000F057FB002143
:100EF000802000F053FB0AE0AE48844207D1012174
:100F0000801500F04BFB0021A01500F047FB10BD41
:100F100010B50121084600F041FB0021012000F03E
:100F20003DFB10BD2DE9F0410246002500260020C2
:100F300000230024002791F803C00CF00F0591F85E
:100F400003C00CF0100CBCF1000F03D091F802C0EC
:100F50004CEA050591F800C0BCF1000F31D01468CF
:100F600000202BE04FF0010C0CFA00F3B1F800C0A8
:100F70000CEA03069E4220D183004FF00F0C0CFABE
:100F800003F7BC4305FA03FC4CEA040491F803C0E0
:100F9000BCF1280F06D14FF0010C0CFA00FCC2F88E
:100FA00014C00AE091F803C0BCF1480F05D14FF01E
:100FB000010C0CFA00FCC2F810C0401C0828D1D368
:100FC0001460B1F800C0BCF1FF0F34DD546800209C
:100FD0002EE000F1080C4FF0010808FA0CF3B1F80C
:100FE00000C00CEA03069E4221D183004FF00F0C93
:100FF0000CFA03F7BC4305FA03FC4CEA040491F82D
:1010000003C0BCF1280F05D100F1080C08FA0CF858
:10101000C2F8148091F803C0BCF1480F07D100F169
:10102000080C4FF0010808FA0CF8C2F81080401CB8
:101030000828CED35460BDE8F0814FF6FF710180DF
:10104000022181700421C17070470246002093681C
:101050000B400BB1012000E000207047014688687A
:1010600080B2704702460020D3680B400BB10120CC
:1010700000E0002070470146C86880B270470161F7
:101080007047416170470AB1016100E041617047FA
:10109000C16070474FF480320A438261816182618E
:1010A00082698269704702460020434B18684FF6F8
:1010B0008073184040EA021008433F4B18607047A5
:1010C0003E49C8617047F0B50A460023002400215C
:1010D000002500F00046B6F1004F02D1364EF1690E
:1010E00001E0354E7168C0F3034583B200F4401649
:1010F000B6F5401F08D121F070612F4E766826F0BA
:1011000070662D4F7E6012E000F48016B6F5801FE9
:1011100006D1032606FA05F4A14341F0706106E00A
:10112000460D360103FA06F6B14341F0706122B173
:10113000460D360103FA06F6314300F00046B6F1DB
:10114000004F02D11C4EF16101E01B4E7160F0BDF9
:1011500030B500228B071C0F0F2303FA04F2164B45
:1011600008338C1053F824309343134C08348D10FB
:1011700044F8253023468C1053F824308C07240F74
:1011800000FA04F423430C4C08348D1044F8253045
:1011900030BD0A49DC31086070470000000801409A
:1011A000000C0140001001400014014000180140F3
:1011B000001C0140002001400000014000002042CE
:1011C00010B50121080700F0F6F900214FF080501A
:1011D00000F0F1F910BD2A490862704728490861FA
:1011E000704701460020274A106820F0E0000843BD
:1011F000106070472249A0310860704710B5024660
:101200000020204B186820F00300104318601E4B8C
:101210001B6843F004031C4C2360012901D130BF3B
:1012200000E020BF184B1B6823F00403164C23601A
:1012300010BD1448006840F00400124908600846D8
:10124000006840F0020008600F48006840F00400A9
:101250000D49086000BF00BF30BF70470146002045
:10126000084A52680A400AB1012000E00020704795
:101270000449096841EA8001024A11607047000090
:1012800000000E420070004010ED00E0DF480068F2
:1012900040F00100DD49086008464068DC4908402C
:1012A000DA49486008460068DA490840D7490860CA
:1012B0000846006820F4802008600846406820F452
:1012C000FE0048604FF41F0088607047CF490968EE
:1012D00021F48031CD4A11601146096821F4802142
:1012E0001160B0F5803F03D0B0F5802F0ED106E03D
:1012F000C649096841F48031C44A116007E0C34916
:10130000096841F4A021C14A116000E000BF00BF9C
:10131000704710B501460022002300204A11012A1F
:1013200002D1BA4C236806E0022A02D1B74C236AE4
:1013300001E0B64C636A01F01F02012494401C4096
:101340000CB1012000E0002010BD38B50020009055
:101350000024002500BF3120FFF7DBFF0546009881
:10136000401C00900098B0F5A06F01D0002DF2D085
:101370003120FFF7CEFF08B1012400E00024204611
:1013800038BD01460020A14A106820F0F80040EA6C
:10139000C10010607047A0490860704702460020F5
:1013A0009A4B586820F47C1042EA01031843974B8B
:1013B0005860704798490866704701460020934A74
:1013C000506820F003000843506070478F48406821
:1013D00000F00C007047014600208C4A506820F055
:1013E000F00008435060704701460020874A50686B
:1013F00020F4E06008435060704701460020834AB3
:10140000506820F4605040EAC1005060704729B134
:101410007E4A527A02437D4B5A7204E07B4A527AEA
:1014200082437A4B5A7270477B49D83108607047C3
:1014300001460020754A506820F44040084350603F
:1014400070470021714A20321170704A82F82010D2
:10145000012802D004280AD104E001216B4A20327D
:10146000117005E00521694A2032117000E000BFCB
:1014700000BF70476949086070476449096A0143C1
:10148000624A11627047654944390860704730B557
:1014900000210022002400235C4D6D6805F00C0142
:1014A00021B1042905D0082923D105E05C4D056050
:1014B00022E05B4D05601FE0544D6D6805F470122D
:1014C000524D6D6805F48034022505EB92421CB93B
:1014D000544D554305600BE04C4D6D6805F40035E7
:1014E0001DB1504D5543056002E04D4D554305601B
:1014F00002E04B4D056000BF00BF444D6D6805F034
:10150000F0010909484D6B5C0568DD4045603F4DC1
:101510006D6805F4E061090A434D6B5C4568DD4088
:1015200085603A4D6D6805F46051C90A3E4D6B5CAB
:101530004568DD40C560354D6D6805F44041890B57
:101540003A4D6B5CC568B5FBF3F5056130BD29B15B
:101550002E4A526902432D4B5A6104E02B4A5269CC
:1015600082432A4B5A61704729B1284A9269024343
:10157000264B9A6104E0254A92698243234B9A6183
:10158000704729B1214AD2690243204BDA6104E055
:101590001E4AD26982431D4BDA61704729B11B4A4A
:1015A000D2680243194BDA6004E0184AD2688243D9
:1015B000164BDA60704729B1144A12690243134B83
:1015C0001A6104E0114A12698243104B1A61704794
:1015D00012494039086070470F49C86470470B4989
:1015E000C87170470948406A40F0807007494862F6
:1015F000704701460020054A92680A400AB101205E
:1016000000E00020704701498872704700100240D6
:101610000000FFF8FFFFF6FE000042428004424255
:1016200000127A0000093D00140000202400002070
:1016300029B1504A128802434E4B1A8004E04D4AA9
:10164000128882434B4B1A8070474A48001D00881D
:1016500040F010004749091D088070474548001DAB
:1016600000884FF6EF7108404249091D0880704715
:10167000002140481C300188001F008841EA0040DA
:10168000704700B50246FFF7E0FF100C39491831EA
:101690000880091D0A80FFF7E1FF00BD00B5024682
:1016A000FFF7D3FFC2F30340324908310880091D18
:1016B0000A80FFF7D3FF00BD00B50246FFF7C5FF64
:1016C000100C2C4920310880091D0A80FFF7C6FF45
:1016D00000BD00202749103109880907080B25495A
:1016E000143109880843704700BF2248001D008854
:1016F00000F020000028F8D070471E48001D008828
:101700004FF6F77108401B49091D088000BF1948B2
:10171000001D008800F008000028F8D0704701463E
:101720000020144A121D12880A400AB1012000E06C
:10173000002070470F49091D098881430D4A121D79
:1017400011807047014600200A4A121D12880A4083
:10175000D0B2084A12880A4012B108B1012000E054
:10176000002070470349091D09888143014A121D61
:10177000118070470028004000206F4908604860D1
:101780008860C86048628862C8626C4888630020CC
:10179000C86370470021684A516847F6FF62914369
:1017A000027D83681A4343681A43C3681A43036877
:1017B0001A4303691A4311435F4A5160704700217D
:1017C0000175016041608160C160016170475C49E1
:1017D000086070475849096821F00301564A1160B2
:1017E000114609680143116070475348006800F0D2
:1017F0000300704729B1504AD26B02434E4BDA6363
:1018000004E04D4AD26B82434B4BDA6370474D493B
:10181000086070470021484B02689A601A46D168F8
:101820006FF30A01D0E901231A43C3681A4303691D
:101830001A431143404AD160704700210160416062
:101840008160C160016170473B480069C0B2704768
:1018500008B5014600200090374814300844009035
:101860000098006808BD0021334B02685A62426844
:101870009A621A46D16A21F0F701D0E902231A438D
:1018800003691A4343691A4311432B4AD1627047D3
:101890004FF0FF310160002141608160C160016152
:1018A000416170472448006B7047234880300068CE
:1018B000704721498031086070471F48806C70472D
:1018C00020491431086070471E491831086070477C
:1018D0001C491C31086070471A4920310860704764
:1018E0001949086070471849091D086070470121AF
:1018F0008143154A08321160704713490C31086062
:101900007047014600200C4A526B0A400AB1012080
:1019100000E00020704708498863704701460020B6
:10192000054A526B0A400AB1012000E000207047CE
:10193000014988637047000000800140FF07C00034
:10194000A00030428C053042AC01304210B5044654
:10195000BE48844208D101218014FFF71FFE0021F8
:10196000A014FFF71BFE16E0B948844208D10121FC
:101970000014FFF720FE00212014FFF71CFE0AE0F0
:10198000B448844207D10121C013FFF714FE00219F
:10199000E013FFF710FE10BD10B50022028802F41C
:1019A00041520B884C8823438C882343CC882343A3
:1019B0000C8923434C8923438C892343CC892343BB
:1019C0001A430280838B4FF2FF74234083830B8A78
:1019D000038210BD2DE9F04F85B005460C464FF04F
:1019E000000902274FF000084FF0010B0026B24615
:1019F000A88B4FF240010840A88302202884B5F844
:101A00001C90A068022801D100BF38E0A08810B95E
:101A10004FF0010B01E04FF0020B8D48854200D1E1
:101A200000E000BF6846FFF732FDDDF800A0E08867
:101A3000B0F5007F0AD14FEA1A2000EB8000400089
:101A4000A168B0FBF1F0401D86B20BE04FEA4B10ED
:101A5000BAFBF0F000EB80004000A168B0FBF1F0B1
:101A6000401D86B20A20B6FBF0F606F00108A6EB90
:101A70000800C0F34F074FF6FF7000EA0828022F56
:101A800001DBFF2F02DD02274FF00008E08840EA6B
:101A9000080038432884A088A18908436188084346
:101AA0002188084340F4006040EA0909A5F81C9029
:101AB00005B0BDE8F08F0021018041808180C180A8
:101AC000018141818181C18107210182704700210B
:101AD000018041808180C18002218160002181815B
:101AE000704721B1028842F04002028004E002887F
:101AF0004FF6BF731A400280704721B1828B42F4C7
:101B00008062828304E0828B4FF6FF331A40828327
:101B1000704730B5002400230C110125A540ABB25D
:101B20001AB185881D43858002E085889D438580A4
:101B300030BD1AB183880B43838002E083888B43D6
:101B400083807047818170470146888970474FF6CE
:101B5000FF62914204D0028842F48072028004E065
:101B600002884FF6FF631A400280704721B18288D5
:101B700042F00402828004E082884FF6FB731A4030
:101B80008280704702884FF2FF731A4002800288F9
:101B90000A4302807047018841F4805101807047F8
:101BA00021B1028842F40052028004E002884DF61E
:101BB000FF731A400280704702460020012901D0BD
:101BC000108B00E0908A70470146088A7047B1F593
:101BD000804F04D1028842F48042028004E00288EF
:101BE0004BF6FF731A4002807047024600201389AB
:101BF0000B400BB1012000E000207047CA43028176
:101C00007047F0B50246002000240023002501F0B3
:101C10000F070126BE40B4B20B1101269E40B3B29D
:101C2000968806EA03051689264016B10DB10120F3
:101C300000E00020F0BD10B5002201F00F040123E8
:101C4000A3409AB2D343038110BD0000003001408D
:101C500000380040003C004010B50446FE48844275
:101C600008D10121C014FFF799FC0021E014FFF70F
:101C700095FCC4E0B4F1804F08D101210846FFF77C
:101C80009AFC00210120FFF796FCB8E0F34884425B
:101C900008D101210220FFF78EFC00210220FFF76E
:101CA0008AFCACE0EE48844208D101210420FFF711
:101CB00082FC00210420FFF77EFCA0E0E94884427A
:101CC00008D101210820FFF776FC00210820FFF74A
:101CD00072FC94E0E448844208D101211020FFF70F
:101CE0006AFC00211020FFF766FC88E0DF48844290
:101CF00008D101212020FFF75EFC00212020FFF702
:101D00005AFC7CE0DA48844208D101214014FFF7F4
:101D100045FC00216014FFF741FC70E0D548844287
:101D200009D10121C804FFF739FC00214FF400203C
:101D3000FFF734FC63E0D048844209D10121080553
:101D4000FFF72CFC00214FF48010FFF727FC56E032
:101D5000CA48844209D101214805FFF71FFC002130
:101D60004FF40010FFF71AFC49E0C548844208D13F
:101D700001214020FFF71FFC00214020FFF71BFC42
:101D80003DE0C048844208D101218020FFF713FCC8
:101D900000218020FFF70FFC31E0BB48844208D1CE
:101DA00001218015FFF707FC0021A015FFF703FCB8
:101DB00025E0B648844209D101210804FFF7EEFB73
:101DC00000214FF48030FFF7E9FB18E0B04884426F
:101DD00009D101214804FFF7E1FB00214FF4003055
:101DE000FFF7DCFB0BE0AB48844208D101218804FB
:101DF000FFF7D4FB00214FF48020FFF7CFFB10BD8D
:101E000000220288944B98420ED0994B98420BD0F6
:101E1000B0F1804F08D0914B984205D0904B98423A
:101E200002D0904B984204D14FF68F731A404B88E2
:101E30001A438D4B984207D08C4B984204D04FF6F2
:101E4000FF431A40CB881A4302808B8883850B8816
:101E50000385814B98420BD0854B984208D08B4B21
:101E6000984205D08A4B984202D08A4B984201D1C1
:101E70000B7A038601238382704770B50024002209
:101E80000023058C4FF6FE7635400584028C83884E
:101E9000048B4FF68F752C40B51E2C400D882C43BB
:101EA000751E2A400D892A434D882A436A4DA8424F
:101EB0000BD06F4DA84208D0744DA84205D0744D88
:101EC000A84202D0734DA84213D14FF6F7752A40AD
:101ED0004D892A434FF6FB752A408D882A434FF6D9
:101EE000FF652B404FF6FF552B408D892B43CD8945
:101EF0002B4383800483CD888586028470BD70B5B2
:101F0000002400220023058C4FF6EF76354005842F
:101F1000028C8388048B48F6FF752C404FF6FF45F2
:101F20002C400D884FF6FF7606EA05252C434FF628
:101F3000DF752A400D8906EA05152A434D8806EA11
:101F400005152A43444DA84202D0494DA8421DD14F
:101F50004FF67F752A404D894FF6FF7606EA051544
:101F60002A434FF6BF752A408D8806EA05152A4395
:101F70004FF6FF352B404FF2FF752B408D8906EA57
:101F800085052B43CD8906EA85052B438380048391
:101F9000CD880587028470BD70B50024002200231F
:101FA000058C4FF6FF6635400584028C8388848B50
:101FB0004FF68F752C404FF6FC752C400D882C4346
:101FC0004FF6FF552A400D894FF6FF7606EA0525A4
:101FD0002A434D8806EA05252A431F4DA84202D010
:101FE000234DA8421DD14FF2FF752A404D894FF66F
:101FF000FF7606EA05252A434FF6FF352A408D88ED
:1020000006EA05252A434EF6FF752B404DF6FF756F
:102010002B408D8906EA05152B43CD8906EA051567
:102020002B4383808483CD888587028470BD70B5FF
:10203000002200230024058C4EF6FF7635400584EF
:10204000038C8488828B48F6FF752A404FF6FF4543
:102050002A400D8820E00000002C014000040040D0
:1020600000080040000C0040001000400014004038
:1020700000340140004C0140005001400054014038
:1020800000180040001C00400020004000400140BB
:1020900000440140004801404FF6FF7606EA05255E
:1020A0002A434DF6FF752B400D8906EA05352B4373
:1020B0004D8806EA05352B43FA4DA84202D0FA4D69
:1020C000A84208D14BF6FF752C408D894FF6FF765C
:1020D00006EA85152C4384808283CD88A0F8405081
:1020E000038470BD828B4FF2FF331A408283828B50
:1020F0004FF6FF7303EA01231A4382837047F0B55A
:102100000C461546002200210026078C4EF6FF7C67
:1021100007EA0C070784828B018C4FF6FF7707EAEA
:10212000043640F6FF473A404FF6FF7707EA0527A7
:102130003A434FF6FF7707EA03373A43D94FB8429D
:102140000ED0D94FB8420BD0B0F1804F08D0D74F46
:10215000B84205D0D64FB84202D0D64FB84206D1C9
:102160004DF6FF77394046F48057394305E047F68E
:10217000FF57394044F48057394382830184F0BDCE
:10218000828B4FF6F3731A408283828B0A438283D9
:102190007047F0B50C461546002200210026078C3A
:1021A0004FF6FF6C07EA0C070784828B018C4FF611
:1021B000FF7707EA04264FF60C773A404FF6FF7791
:1021C00007EA03172F433A43B64FB8420ED0B64F33
:1021D000B8420BD0B0F1804F08D0B44FB84205D010
:1021E000B34FB84202D0B34FB84206D14FF6FF57B3
:1021F000394046F48077394305E04FF2FF573940C4
:1022000044F48077394382830184F0BD028B4FF21E
:10221000FF331A400283028B4FF6FF7303EA012358
:102220001A4302837047F0B50C4615460022002180
:102230000026078C4FF6EF7C07EA0C070784028B19
:10224000018C4FF6FF7707EA041640F6FF473A4045
:102250004FF6FF7707EA03373A434FF6FF7707EA6F
:1022600005273A438F4FB8420ED08F4FB8420BD05C
:10227000B0F1804F08D08D4FB84205D08C4FB84296
:1022800002D08C4FB84206D14FF6DF77394046F086
:102290001007394305E04FF65F77394044F01007E7
:1022A000394302830184F0BD028B4FF6F3731A4069
:1022B0000283028B0A4302837047F0B50C46154631
:1022C00000220021068C4FF6FE773E400684028BEA
:1022D000018C4FF60C7632407E1C06EA03162E4324
:1022E0003243704EB0420ED06F4EB0420BD0B0F1C0
:1022F000804F08D06D4EB04205D06D4EB04202D036
:102300006C4EB04206D14FF6FD76314044F00106E6
:10231000314305E04FF6F576314044F00106314394
:1023200002830184F0BD70B505460C465D488542C8
:102330000ED05D4885420BD0B5F1804F08D05B4888
:10234000854205D05A48854202D05A48854200D17C
:1023500000E000BF208850B92389A2886188284600
:10236000FFF7ABFFE1882846FFF79EFF25E02088B6
:1023700004280AD12389A28861882846FFF753FFE1
:10238000E1882846FFF742FF17E0208808280AD195
:102390002389A28861882846FFF7FBFEE18828464A
:1023A000FFF7EEFE09E02389A28861882846FFF73F
:1023B000A6FEE1882846FFF795FE70BD2DE9F041A5
:1023C00005460C4600260127608808B9022600E071
:1023D0000026A088012801D1022700E001272088DB
:1023E000A0B92389A28861882846FFF766FFE188A3
:1023F0002846FFF759FF23893A4631462846FFF71A
:1024000012FFE1882846FFF701FF13E02389A28825
:1024100061882846FFF707FFE1882846FFF7F6FEA8
:1024200023893A4631462846FFF747FFE188284688
:10243000FFF73AFFBDE8F0810A884B881A438B8882
:102440001A43CB881A430B891A434B891A438B8949
:102450001A43A0F8442070474FF6FF718180002195
:102460000180C1804180017270470021018041805C
:102470008180C180018141818181C18170470021BA
:1024800001804180012181800021C180018170474C
:102490000021018041808180C18001814181818151
:1024A00070470000002C014000340140000400404F
:1024B00000080040000C004021B1028842F00102F7
:1024C000028004E002884FF6FE731A4002807047D3
:1024D00031B1B0F8442042F40042A0F8442005E0B5
:1024E000B0F84420C2F30E02A0F8442070471AB19D
:1024F00083890B43838102E083898B438381704707
:102500008182704741EA0203A0F8483070471AB14F
:1025100083890B43838102E083898B4383817047E6
:1025200001894FF6F8721140018170470A46002177
:1025300001894FF68F73194011430181704730B5FF
:1025400004460D4629462046FFF7F0FF208940F05B
:102550000700208130BD2DE9F04104460D461646A6
:102560001F46602D06D13B46012231462046FFF72B
:102570005AFE05E03B46012231462046FFF79DFE0C
:1025800029462046FFF7D2FF208940F0070020812E
:10259000BDE8F08130B50C4600210189C9B24FF683
:1025A000FF7505EA0325154325432943018130BD05
:1025B0002DE9F04105460E4617469846002443464D
:1025C0003A4631462846FFF7E5FF2C894FF6F8706A
:1025D000044044F007044FF68F70044044F0700448
:1025E0002C81BDE8F081F0B504460D4616461F4625
:1025F0003B46324629462046FFF7CCFF208940F46F
:1026000080402081F0BD0185828270470A4600210A
:1026100001884FF68F731940114301807047F0B560
:102620000C4615461E460021002200230189028B1C
:10263000038C4FF6F877394021434FF6FC473A4078
:1026400040F201173A434FF6DD773B404FF6FF77F4
:1026500007EA06172F433B43018102830384F0BD41
:102660000A460021018B4FF68F73194011430183F5
:1026700070470A460021018B48F6FF7319404FF658
:10268000FF7303EA02231943018370470A460021BE
:10269000818B4FF68F7319401143818370470A462F
:1026A0000021818B48F6FF7319404FF6FF7303EA50
:1026B000022319438183704721B1028842F08002CE
:1026C000028004E002884FF67F731A400280704750
:1026D00021B1828842F00402828004E082884FF6B1
:1026E000FB731A408280704721B1828842F0080251
:1026F000828004E082884FF6F7731A408280704728
:1027000021B1828842F00102828004E082884FF683
:10271000FE731A40828070470A460021018B4FF6F3
:10272000F77319401143018370470A460021018B5A
:102730004FF2FF7319404FF6FF7303EA0223194368
:10274000018370470A460021818B4FF6F7731940C9
:102750001143818370470A460021818B4FF2FF733A
:1027600019404FF6FF7303EA022319438183704730
:102770000A460021018B4FF6FB7319401143018378
:1027800070470A460021018B4FF6FF3319404FF680
:10279000FF7303EA02231943018370470A460021AD
:1027A000818B4FF6FB7319401143818370470A46B2
:1027B0000021818B4FF6FF3319404FF6FF7303EA78
:1027C00002231943818370470A460021018B4FF68B
:1027D0007F7319401143018370470A460021018B22
:1027E000C1F30E014FF6FF7303EA0223194301837D
:1027F00070470A460021818B4FF67F7319401143C1
:10280000818370470A460021818BC1F30E014FF688
:10281000FF7303EA02231943818370470A460021AC
:10282000018C4FF6FD7319401143018470470A462D
:102830000021018C4FF6F773194011430184704752
:102840000A460021018C4FF6DF7319404FF6FF73E3
:1028500003EA02131943018470470A460021018CE0
:102860004FF67F7319404FF6FF7303EA02131943C3
:10287000018470470A460021018C4FF6FF5319402E
:102880004FF6FF7303EA02231943018470470A4697
:102890000021018C4FF2FF7319404FF6FF7303EADA
:1028A00002231943018470470A460021018C4DF62A
:1028B000FF7319404FF6FF7303EA02331943018493
:1028C000704730B5002301248C40A3B2048C9C4394
:1028D0000484048C02FA01F5ADB22C43048430BDAB
:1028E00030B5002304248C40A3B2048C9C430484A0
:1028F000048C02FA01F5ADB22C43048430BD70B5EE
:102900000346002000241846183001258D40ACB243
:102910001D8CA5431D8409B1082909D100EB610074
:10292000056825F0700505600568154305600EE033
:102930000D1FC5F34E052844056825F4E0450560E4
:1029400005684FF6FF7606EA02263543056070BD3E
:1029500021B1028842F00202028004E002884FF6B0
:10296000FD731A400280704721B1028842F00402D0
:10297000028004E002884FF6FB731A400280704721
:1029800021B1828842F08002828004E082884FF682
:102990007F731A408280704702884FF6F7731A409F
:1029A000028002880A430280704782884FF68F7344
:1029B0001A40828082880A438280704702894FF6DB
:1029C000F8731A40028102890A4302817047028922
:1029D0004FF67F731A40028102890A4302817047D1
:1029E0008184704781857047818670470187704771
:1029F00081877047A0F84010704702884FF6FF4368
:102A00001A40028002880A43028070470146888E7D
:102A100070470146088F70470146888F704701460E
:102A2000B1F8400070470146888C70470146088D18
:102A3000704702460020138A0B400BB1012000E0D2
:102A400000207047CA430282704730B5024600201A
:102A500000230024158A05EA0103958905EA01048B
:102A600013B10CB1012000E0002030BDCA43028246
:102A70007047000010B50446FB48844209D101218B
:102A80008803FEF78BFD00214FF48040FEF786FDA2
:102A900032E0F648844209D101214804FEF78BFD5B
:102AA00000214FF40030FEF786FD25E0F048844217
:102AB00009D101218804FEF77EFD00214FF480201A
:102AC000FEF779FD18E0EB48844209D10121C804E2
:102AD000FEF771FD00214FF40020FEF76CFD0BE0C6
:102AE000E548844208D101210805FEF764FD002174
:102AF0004FF48010FEF75FFD10BD2DE9F04786B062
:102B000005460E460024A24600BFA1460027B08914
:102B100000B100BF2F462C8A4CF6FF700440F088AD
:102B200004432C82AC894EF6F3100440B0883189FE
:102B30000843718908430443AC81AC8A4FF6FF40D7
:102B40000440B0890443AC8201A8FEF7A0FCC6484B
:102B5000874202D1DDF810A001E0DDF80CA0A889C1
:102B600000F4004040B10AEBCA0000EB0A103168E3
:102B70004900B0FBF1F807E00AEBCA0000EB0A10CD
:102B800031688900B0FBF1F86420B8FBF0F0040173
:102B90002009642101FB1089A88900F4004040B19C
:102BA000322000EBC900B0FBF1F000F00700044355
:102BB00008E0322000EB09106421B0FBF1F000F0D6
:102BC0000F0004432C8106B0BDE8F0874FF4165186
:102BD000016000218180C18001810C21418100219F
:102BE0008181704710B502460020108A4FF2FF0322
:102BF00018400B884C8823438C882343CC8823437C
:102C00001843108210BD0021018041808180C18065
:102C1000704721B1828942F40052828104E08289A6
:102C20004DF6FF731A4082817047F0B503460024C9
:102C300000260025002040F66A17B94200D100BFE7
:102C40001846C1F3421401F01F06012707FA06F5E2
:102C5000012C01D10C3004E0022C01D1103000E035
:102C600014301AB107682F43076002E00768AF43CA
:102C70000760F0BD1AB1838A0B43838202E0838A26
:102C80008B4383827047028A4FF6F0731A400282A8
:102C9000028A0A430282704782894FF2FF731A4008
:102CA000828182890A438281704721B1828942F000
:102CB0000202828104E082894FF6FD731A4082810C
:102CC0007047028A4FF6DF731A400282028A0A4373
:102CD0000282704721B1028A42F48042028204E0FB
:102CE000028A4BF6FF731A4002827047C1F3080252
:102CF0008280704701468888C0F308007047818948
:102D000041F0010181817047028BD2B20283028BB4
:102D100042EA012202837047028B02F47F4202835F
:102D2000028B0A430283704721B1828A42F020025B
:102D3000828204E0828A4FF6DF731A4082827047F3
:102D400021B1828A42F01002828204E0828A4FF628
:102D5000EF731A408282704721B1828A42F00802E2
:102D6000828204E0828A4FF6F7731A4082827047AB
:102D700021B1828942F40042828103E08289C2F358
:102D80000E028281704721B1828A42F400628282FF
:102D900004E0828A4FF2FF731A4082827047828A6F
:102DA0004FF6FB731A408282828A0A4382827047FE
:102DB00021B1828A42F00202828204E0828A4FF6C6
:102DC000FD731A408282704702460020B1F5007FF1
:102DD00000D100BF13880B400BB1012000E00020A0
:102DE000704701F40072B2F5007F00D100BFCA4302
:102DF0000280704770B502460024002300250020A1
:102E000040F66A16B14200D100BFC1F3421501F08D
:102E10001F03012606FA03F3012D02D196893340E0
:102E200006E0022D02D1168A334001E0968A334033
:102E30000C12012606FA04F41688344013B10CB1C2
:102E4000012000E0002070BD10B50022002340F6F4
:102E50006A14A14200D100BF0A1201249440A3B217
:102E6000DC43048010BD00000038014000440040F5
:102E700000480040004C00400050004094B0002446
:102E800000F01CFA00F05DFA02F016FB02F09CFD67
:102E90000220714908610420486102F0C3FD02F07C
:102EA00090FF6E490860C82002F0B6FD02F064FF92
:102EB0006B490860084600686A49884206D10122C9
:102EC0001021694802F032FF6748047800F070FA78
:102ED00002F062FB00BF02F0A8FB0128FBD102F068
:102EE0009CFB00206149087003F078FA04F006FAB0
:102EF00004F02CFAAFE05E48007801287ED1002073
:102F00005A49087000BF594800780228FBD1601C5C
:102F1000C4B2584803F0C3FB5648808A564908801B
:102F20005448008A5549088052488089544908808D
:102F300050480089534908804E488088524908808B
:102F40004C48008851490880084600884E49098845
:102F50004C4A12884A4B1B88CDE90032CDE9021059
:102F6000464803884448028849A10CA806F06CFD35
:102F70000CAA4FA104A806F067FD00BF04204F492A
:102F80000860202034494861086104204B49091F2A
:102F90000860202030494861086100BF00BF04205C
:102FA0004649086020202C494861086104204349B3
:102FB000091F0860202028494861086100BF04AA51
:102FC000F0214FF4A07003F034F92A480068294931
:102FD0004968284A9268CDE9002102902548C368D3
:102FE0000269416904A806F0D7FB1B48C06880F05D
:102FF00004001949C86002201D4900E00CE0087077
:10300000102002F0A4FD2E4804700122102102F0CD
:10301000FCFD01202B49887115480078022806D153
:1030200029480078302802D103201149087010483F
:10303000007803280FD10CA904A803F044F801205C
:103040000B490870642002F0E7FC0348C06880F078
:1030500002000149C8604EE7001001402C0000202A
:10306000300000201740EF00290000201F0500203D
:1030700049000020EC060020360000203800002027
:103080003A0000203C0000203E00002040000020CC
:1030900025302E326425302E326425302E326425C0
:1030A000302E326425302E326425302E32640000FA
:1030B000303A2F25732E626D700000001408014015
:1030C000280000207C04002052000020704700BF30
:1030D000FEE700BFFEE700BFFEE700BFFEE7704768
:1030E00070477047704710B501218807FFF7ADFCA6
:1030F00040B163480068401C6149086001218807AD
:10310000FFF7B4FC10BD10B501F0BEFD10BD10B549
:1031100040F225515B48FFF76DFE20B15948FFF79B
:10312000E9FD594908705948007801282BD15848C1
:10313000007810280BDA544800785649544A12781F
:10314000885453480078401C514908701BE0002007
:103150004F4908704F48C07B302804D14D48C07B90
:103160004D4908700CE04B48C07B312804D14948D8
:10317000C07B4949087003E04648C07B4749087056
:1031800000204249087046480078012824D1404870
:10319000007803280BDA3C4800783E493C4A127814
:1031A00088543B480078401C3949087014E039487D
:1031B0008078072805D10020394908703449087003
:1031C0000AE0002036490870012030490870304874
:1031D0000078401C2E4908702B4800787E280DD1BD
:1031E000294800782B492A4A1278885428480078C0
:1031F000401C2749087001202949087010BD10B5EE
:103200000120FDF70FFB08B32648007880B9202085
:1032100025490860082025490860012021490870D7
:1032200008202249086020201F49091F08600AE081
:103230001C480078012806D108201C49091D086097
:103240000220184908700120FDF7FDFA10BD10B5E5
:103250004020FDF7E7FA88B11548007840B91548D5
:10326000C06880F002001349C8600120104908704E
:103270004020FDF7E8FA00200F49887110BD0000DA
:103280004400002000380140530000205600002078
:10329000540000205C07002052000020480000205D
:1032A000550000201F050020140C0140101401409F
:1032B00049000020001001407C04002000B585B0CA
:1032C000012144F20400FEF74FF94FF40070ADF80D
:1032D000100018208DF8130003208DF8120004A9A7
:1032E0003148FDF71FFE4FF48060ADF81000042058
:1032F0008DF8130004A92C48FDF714FE4FF4164076
:1033000000900020ADF80400ADF80600ADF808000C
:10331000ADF80C000C20ADF80A0069462348FFF711
:10332000ECFB01212148FFF774FC012240F22551FA
:103330001E48FFF77AFC01211C48FFF76AFC05B024
:1033400000BD08B54FF4C060FCF7FEFF25208DF8E6
:10335000000000208DF8010002208DF802000120FD
:103360008DF803006846FCF7F4FF08BD70B504460D
:103370000D46E1B20D48FFF7B9FC00BF80210B48B4
:10338000FFF722FD0028F9D0204670BD10B5044695
:1033900000BF20210548FFF717FD0028F9D003489A
:1033A000FFF7A8FC10BD00000008014000380140F4
:1033B00010B500F08CF9A249002005F070FA10BD9C
:1033C00010B5002400F083F9002006F009FA9C49AA
:1033D000002005F064FA02229AA19E4805F07CFACA
:1033E0009D4908700846007860B99C4B4FF4007204
:1033F0009B49984805F011FC97490870954805F0DD
:103400006FFD00E000BF01228EA1924805F064FA32
:103410009149087001209149086000209149086095
:1034200000BF00208F49086009E000208E498D4AC6
:10343000126888548B480068401C8A490860894893
:103440000068B0F5007FF0DB844B4FF400728649D2
:10345000804805F0FBFA80490870844901EB44205C
:10346000814A83A106F0F0FA641C7B48007818B901
:103470007A4800680028D4D100BF00BF754805F025
:103480002FFD10BD70B58EB004460D46164622467F
:1034900078A101A806F0D8FA6949002005F0FFF9E3
:1034A000062201A96B4805F017FA6B490870084617
:1034B000007868B9694B32462946664805F0ADFB8D
:1034C00065490870634805F00BFD00200EB070BD23
:1034D00061480078082800D1F8E74FF0FF30F5E7A1
:1034E00070B58EB004460D461646224661A101A86D
:1034F00006F0AAFA5249002005F0D1F9022201A9EA
:10350000544805F0E9F9544908700846007868B94C
:10351000524B324629464F4805F07FFB4E49087012
:103520004C4805F0DDFC00200EB070BD4A48007824
:10353000042800D1F8E74FF0FF30F5E770B58EB002
:1035400005460E4600242A464AA101A806F07CFA48
:10355000FFF72EFF3A49002005F0A1F9012201A949
:103560003C4805F0B9F93C4908700846007878BB3A
:1035700000BF00203B49086009E000203A49394A71
:103580001268885437480068401C3649086035483E
:103590000068B0F5007FF0DB304B4FF40072324929
:1035A0002C4805F053FA2C49087006EB44202E4AAB
:1035B0002FA106F049FA641C2748007818B927485B
:1035C00000680028D5D100BF00BF00200EB070BD3C
:1035D000FFE74FF0FF30F9E72DE9F04105460C46D3
:1035E00026786778A6F1B000C0EB001101EB40101F
:1035F00007EB4000A1384FEA40181149002005F0C0
:103600004EF901221DA1134805F066F91249087010
:103610000846007888B941460E4805F06CFC0F4B0F
:10362000202229460B4805F011FA0B490870094879
:1036300005F056FC0020BDE8F0814FF0FF30FAE7BE
:1036400070070020303A2F6D795F5F44656D6F2EF3
:1036500054585400D00B0020580000205C02002079
:1036600059000020640200201810002018120020C9
:1036700025730000303A257300000000303A2F48CF
:103680005A4C49422E62696E0000000008B50020C5
:10369000FEF79DF80020FEF79DF8FEF76DF800217B
:1036A0004FF48060FDF753FF4FF4F850ADF8000081
:1036B00004208DF803006946FA48FDF733FC042026
:1036C000ADF800006946F848FDF72CFC08BD08B5C8
:1036D00031208DF8000000208DF801008DF80200E7
:1036E00001208DF803006846FCF733FE08BD10B5D5
:1036F000EE48FCF7E1FF10BD30B58BB005460C4637
:10370000EB48FCF7EDFF0021EA48FCF7BAFFEA4876
:103710000090019500200290A008039000200490E2
:10372000802005908000069080000790002008907F
:103730004FF40050099000200A906946DD48FCF7DC
:1037400075FF0121DB48FCF79CFF0BB030BD30B5A5
:103750008BB005460C46D648FCF7C2FF0021D54881
:10376000FCF78FFFD4480090019510200290A0082C
:103770000390002004908020059080000690800037
:103780000790002008904FF40050099000200A9004
:103790006946C848FCF74AFF0121C648FCF771FF9B
:1037A0000BB030BD08B501213020FDF7DDFE4FF430
:1037B000F850ADF8000003208DF8020018208DF8B5
:1037C00003006946B748FDF7ADFB0420ADF80000E3
:1037D0006946B548FDF7A6FB01218802FDF7B7FE53
:1037E00001210220FDF7B3FE08BD014600BFB2482B
:1037F0008038406B00F045000028F8D040F2FF50C0
:10380000AD4A803A90631046406908221040C0B229
:1038100070472DE9FC4107460D4600260024002094
:10382000009001900820A5490860102048604020C1
:1038300088600020C8604FF4806008610846FDF78A
:10384000E9FF1020FFF7D1FF044614B12046BDE880
:10385000FC819B4800880004984908603720486034
:10386000402088600020C8604FF4806008610846EE
:10387000FDF7D0FF3720FFF7B8FF04460CB1204614
:10388000E5E74FF0FF308F4908600820486030209E
:1038900088600220C8600020086101204861084655
:1038A000FDF7E1FF00208549086033204860402093
:1038B00088600020C8604FF4806008610846FDF70A
:1038C000A9FF3320FFF791FF04460CB12046BEE765
:1038D0000CE04FF40010FEF714F838B1FDF7E5FFE7
:1038E0004DF82600761C012E00D907E0724880387A
:1038F000406B40F22A6108400028EAD000BF08204F
:10390000FDF7FFFF28B10820FEF705F80424204644
:103910009DE70220FDF7F5FF28B10220FDF7FBFF30
:103920000224204693E72020FDF7EBFF28B120205A
:10393000FDF7F1FF0624204689E74FF40070FDF7FC
:10394000E0FF30B14FF40070FDF7E5FF072420469B
:103950007DE740F2FF50FDF7DEFF0098000600997A
:1039600001F47F4140EA0120009901F47F0140EA1F
:103970001120009940EA11606860019800060199E1
:1039800001F47F4140EA0120019901F47F0140EAFE
:103990001120019940EA11602860204657E77CB564
:1039A00005460024002000900190FDF751FF00F033
:1039B000007010B10E2420467CBD4149098888B2B0
:1039C0006946FFF726FF04460CB12046F4E7012DB7
:1039D00036D1019800F4802000282ED03848008885
:1039E0000004364908603720486040208860002085
:1039F000C860A80208610846FDF70CFF3720FFF7F2
:103A0000F4FE04460CB12046D6E702202B4908609C
:103A100006204860402088600020C8604FF4806025
:103A200008610846FDF7F6FE0620FFF7DEFE0446B5
:103A30000CB12046C0E72046BEE725242046BBE760
:103A4000019800F48030F8B31D48008800041B4939
:103A5000086037204860402088600020C8604FF42C
:103A6000806008610846FDF7D5FE3720FFF7BDFEF0
:103A700004460CB120469FE700201049086006204C
:103A80004860402088600020C8604FF48060086172
:103A90000846FDF7BFFE0620FFF7A7FE0446A4B1C7
:103AA000204689E70010014000140140002000106A
:103AB00000F000104404024080800140B014002057
:103AC0006C040020C414002001E0204674E7252483
:103AD000204671E770B504460025FB4800680328BE
:103AE00002D12725284670BDF748006838B1F6484E
:103AF0000068012803D0F448006802282ED1B4F5EC
:103B0000805F02D127252846EDE7B4F5006F14D178
:103B10000120FFF744FF054605BB0120EB4908756E
:103B200000200860486088604FF40060C860002092
:103B300008610846FDF72EFE10E00020FFF72FFF7A
:103B400005465DB90120E14908750020086048601C
:103B50008860C86008610846FDF71CFE2846C2E779
:103B600070B504460025DA4804600720D84948604B
:103B7000402088600020C8604FF4806008610846DB
:103B8000FDF748FE0720FFF730FE0546284670BDCA
:103B900030B5014600200022CB4B1B7881F84E3017
:103BA000CC4B1B88A1F84C30CB4B1B681A0E9309E9
:103BB0000B70C2F383034B7002F003038B70C64B90
:103BC0001B68C3F30742CA70C34B1B88C3F30722A9
:103BD0000A71C14B1A784A715B681A0E1301CB80C7
:103BE000BD4B5B68C3F30742CB8843EA1213CB801B
:103BF00002F00F030B72B84B9B88C3F30722D30963
:103C00004B72C2F380138B72C2F34013CB72C2F3B8
:103C100000130B7300234B73AB4B1B681BB1AA4BF8
:103C20001B68012B3CD193071B0D0B61AA4B1A7922
:103C30000B6943EA82030B61A74B9B681A0E0B6961
:103C400043EA92130B61C2F3C2030B7502F0070340
:103C50004B75A14B9B68C3F3074253098B75C2F3A5
:103C60008203CB7593075B0F0B769B4B1B89C3F3CA
:103C700007220B7E43EAD2130B760B695B1C4B6465
:103C80000C7E4B6CA41C0125A5406B434B640C7A45
:103C90000123A3408B64D1E9113463434B6421E0D9
:103CA000894B1B68022B1DD18B4B1A7993069B0AFB
:103CB0000B61894B9B681A0E0B6943EA02230B6167
:103CC000854B9B68C3F307420B6913430B61824B1F
:103CD0001B89C3F307220B695B1CDB044B644FF4A5
:103CE00000738B64C2F3801301F8193F93065B0ED7
:103CF0004B70794B1A7A4B7843EAD2134B7002F02F
:103D00007F038B70744BDB681A0ED309CB70C2F340
:103D100041130B71C2F382034B7193071B0F8B711D
:103D20006D4BDB68C3F307428B7943EA92138B71C7
:103D3000C2F34013CB7100230B7202F001034B72EC
:103D4000654B9B89C3F30722D3098B72C2F380139F
:103D5000CB72C2F340130B73C2F300134B73C2F365
:103D600081038B7302F00303CB735B4B1A7B530805
:103D70000B7401234B74594B1B681A0ECA74193902
:103D8000564B1B68C3F307421402CC85534B1B8868
:103D9000C3F30722CB8D1343CB85504B1A781406FF
:103DA0000C635B681A0E0B6B43EA02440C634B4BCB
:103DB0005B68C3F307420B6B43EA02240C63474B77
:103DC0009B88C3F307220B6B13430B63434B1A7996
:103DD00034235A54414B9B681A0E35235A543F4B97
:103DE0009B68C3F3074214068C633C4B1B89C3F3E7
:103DF00007228B6B43EA02448C63384B1A7A8B6B35
:103E000043EA02248C63354BDB681A0E8B6B134339
:103E10008B63324BDB68C3F307423C235B5C43EAB2
:103E200012143C235C5413071C0DCC872B4B9B892D
:103E3000C3F30722CB8F1343CB87284B1A7B54083D
:103E400040235C54012441235C5430BD70B50025EF
:103E50002348446B01E02248446B04F045000028ED
:103E6000F9D004F0040028B103250420FDF753FD28
:103E7000284670BD04F0010028B101250120FDF79E
:103E80004AFD2846F5E740F2FF50FDF744FD28467D
:103E9000EFE72DE9F04106460F464FF000081048C5
:103EA000456B01E00E48456B05F045000028F9D050
:103EB00005F00400B0B14FF003080420FDF72BFD1E
:103EC0004046BDE8F08100006804002098140020FE
:103ED000B01400206C0400201814002028140020C6
:103EE0000080014005F0010030B14FF001080120D1
:103EF000FDF711FD4046E4E7FDF7A6FCB04203D014
:103F00004FF010084046DCE740F2FF50FDF703FD9C
:103F10000020FDF79DFC044604F4604018B9200C15
:103F200038804046CDE704F4005008B11320C8E7BC
:103F300004F4804008B11020C3E704F4004008B145
:103F40000F20BEE74046BCE738B5002401200090B2
:103F5000FDF74BFC10B92524204638BDF748006812
:103F6000042828D00020F649086002204860C020BC
:103F700088600020C8604FF4806008610846FDF743
:103F800049FCFFF763FF04460CB12046E5E700203B
:103F9000FDF75EFCEB4908600420FDF759FCE94998
:103FA00048600820FDF754FCE64988600C20FDF7C6
:103FB0004FFCE449C860E148006858B1DF48006838
:103FC000012807D0DD480068062803D0DB480068D8
:103FD000022816D10020DA490860032048604020FA
:103FE00088600020C8604FF4806008610846FDF7D3
:103FF00011FC69460320FFF74CFF04460CB1204634
:10400000ABE7CE48006804282ED0BDF80000CE49AA
:104010000860BDF800000004C94908600920486034
:10402000C02088600020C8604FF4806008610846A6
:10403000FDF7F0FBFFF70AFF04460CB120468CE7C2
:104040000020FDF705FCC14908600420FDF700FCD5
:10405000BE4948600820FDF7FBFBBC4988600C2086
:10406000FDF7F6FBB949C8600024204675E770B536
:104070000025B748446B01E0B548446B04F04500A7
:104080000028F9D004F0040028B103250420FDF72E
:1040900042FC284670BD40F2FF50FDF73CFC28462C
:1040A000F8E770B500264FF48035A948446B02E06C
:1040B0006D1EA748446B04F0450008B9002DF7D1E8
:1040C00015B104F0040028B103260420FDF723FCF9
:1040D000304670BD04F0400028B100264020FDF7B6
:1040E0001AFC3046F5E73046F3E770B500254FF48B
:1040F000803400E0641E24B18020FDF702FC00281B
:10410000F8D014B90325284670BD40F2FF50FDF7E2
:1041100002FC2846F8E72DE9F0410024002600259E
:104120000027A046B2208B4908750020086048602F
:104130008860C86008610846FDF72CFB0320FDF786
:1041400049FB0120FDF743FB00207D4908604860E2
:104150008860C8604FF4806008610846FDF75AFB2C
:10416000FFF7C3FF044614B12046BDE8F0814FF4C9
:10417000D57073490860082048604020886000209E
:10418000C8604FF4806008610846FDF743FBFFF705
:1041900088FF04462CB90120684908604FF0804828
:1041A00012E000206649086037204860402088609F
:1041B0000020C8604FF4806008610846FDF72AFBC4
:1041C0003720FFF712FB044600205D4908603720C6
:1041D0004860402088600020C8604FF4806008611B
:1041E0000846FDF717FB3720FFF7FFFA0446002CBF
:1041F0004AD136E00020524908603720486040200C
:1042000088600020C8604FF4806008610846FDF7B0
:1042100001FB3720FFF7E9FA04460CB12046A4E77A
:104220004D4848EA0000464908602920486040207F
:1042300088600020C8604FF4806008610846FDF780
:10424000E9FAFFF714FF04460CB120468DE7002081
:10425000FDF7FEFA0646012080EAD67080F00107DD
:104260006D1C1FB94FF6FF708542C3D34FF6FF7028
:10427000854202D31B24204677E706F08040061EC5
:1042800002D002202D49086020466EE710B50024B8
:10429000FFF788FAFDF770FAFFF73DFF04460CB10F
:1042A000204610BDFFF750FE04460CB12046F8E74B
:1042B0000120284908750020086048608860C860AF
:1042C00008610846FDF766FA1CB92448FFF760FC50
:1042D000044634B92149B1F84C100804FFF740FCFA
:1042E000044624B94FF40060FFF7F4FB044620466F
:1042F000D7E770B504460025134800880004144928
:10430000886040F24D40C8600D20FFF76EFA054608
:104310000DB1284670BD0E48406920602846F9E777
:1043200008B5002000906846FFF7E3FF08B1FF20C2
:1043300008BD0098C0F34320FAE70000680400209D
:10434000B0140020281400206C0400201814002051
:1043500000800140981400200000108048140020C4
:1043600010B50424FFF7DCFF0446042C01D1002023
:1043700010BDFF2C01D10220FAE70120F8E710B5AB
:1043800000240020FDF726FA204610BD70B5044633
:10439000002500260020FDF75BFA00F0007010B148
:1043A0000E25284670BD4020FC490860102048605A
:1043B000402088600020C8604FF480600861084693
:1043C000FDF728FA1020FFF710FA05460DB1284630
:1043D000E8E7F34800880004F049086037204860A7
:1043E000402088600020C8604FF480600861084663
:1043F000FDF710FA3720FFF7F8F905460DB128460A
:10440000D0E74FF0FF30E749086040204860602067
:1044100088600220C86000200861012048610846C9
:10442000FDF721FA0020DD4908600D20486040209A
:1044300088600020C8604FF4806008610846FDF77E
:10444000E9F90D20FFF7D1F905460DB12846A9E796
:104450000EE04FF40040FDF754FA48B1002604E0A6
:10446000FDF723FA44F82600761C082EF8D32034F2
:10447000CD48406B40F22A6108400028E9D008206E
:10448000FDF73FFA28B10820FDF745FA0425284634
:1044900088E70220FDF735FA28B10220FDF73BFA44
:1044A000022528467EE72020FDF72BFA28B12020A0
:1044B000FDF731FA0625284674E74FF40070FDF742
:1044C00020FA30B14FF40070FDF725FA0725284691
:1044D00068E703E0FDF7E9F92060241D4FF40010C0
:1044E000FDF70FFA0028F5D140F2FF50FDF713FA5F
:1044F000284657E770B5044600260025AB48FFF76D
:1045000045FF06460EB1304670BDA84800788509C3
:104510002570A6480078C0F340156570A3488578DB
:1045200028026080A148C5786088284360809F4841
:104530000579280660609D484579606840EA054035
:1045400060609A488579606840EA05206060974815
:10455000C5796068284360609448057A2572457A79
:104560006572807A0509A5729048C57A2802A081F3
:104570008E48057BA0892843A0818C48407B850814
:10458000A5738A48407B00F00305E5733046BBE71E
:104590002DE9F04107460D461446002600208449C7
:1045A000087084490860844908607F49C86283486C
:1045B0000068022801D104026D0A784804601020C6
:1045C00076494860402088600020C8604FF48060D1
:1045D00008610846FDF71EF91020FFF706F90646A8
:1045E00016B13046BDE8F0814FF0FF306D490860EC
:1045F00008464460902088600220C860002008615E
:10460000012048610846FDF72EF964480560112035
:1046100062494860402088600020C8604FF4806094
:1046200008610846FDF7F6F81120FFF7DEF80646A8
:104630000EB13046D6E701210802FDF7DBF8012074
:10464000FDF7E5F821463846FFF756F83046C9E74A
:104650002DE9F04180460D4614461E4600270020F5
:1046600053490870534908600120534908600020ED
:104670004D49C86251480068022801D104026D0A00
:10468000464804601020454948604020886000206A
:10469000C8604FF4806008610846FDF7BBF8102041
:1046A000FFF7A3F8074617B13846BDE8F0814FF091
:1046B000FF303C49086006FB04F0486090208860A9
:1046C0000220C86000200861012048610846FDF70B
:1046D000CAF832480560122030494860402088609E
:1046E0000020C8604FF4806008610846FDF792F82A
:1046F0001220FFF77AF807460FB13846D5E70121B7
:104700000802FDF777F80120FDF781F806FB04F1B8
:104710004046FEF7F1FF3846C7E710B5002400BF5A
:10472000FEF7E5FF30B92348006818B92048007843
:104730000028F5D01E48007810B11D48007810BD43
:104740002046FCE72DE9F04107460D4614460026B9
:104750000020174908701749086017490860124976
:10476000C86216480068022801D104026D0A0B488D
:104770000460102009494860402088600020C8601B
:104780004FF4806008610846FDF744F81020FFF7F9
:104790002CF80646A6B13046BDE8F081B0140020E2
:1047A0006C040020C4140020008001403814002054
:1047B00074040020780400207004002068040020A5
:1047C000FE4805601820FD494860402088600020B0
:1047D000C8604FF4806008610846FDF71BF8182098
:1047E000FFF703F806460EB13046D5E74FF0FF302D
:1047F000F349086008464460902088600020C86043
:104800000861012048610846FDF72DF801210802E2
:10481000FCF7F0FF21463846FEF799FF0120FCF730
:10482000F6FF3046B8E72DE9F84380460F461546B7
:104830001E46002400200090E2490870E24908600A
:104840000120E24908600020E149C862E1480068AF
:10485000022801D105027F0AD84805601020D749F7
:104860004860402088600020C8604FF48060086184
:104870000846FCF7CFFF1020FEF7B7FF044614B13F
:104880002046BDE8F883D44800880004CB4908607E
:1048900037204860402088600020C8604FF4806066
:1048A00008610846FCF7B6FF3720FEF79EFF044676
:1048B0000CB12046E5E7C14806601720BF494860B3
:1048C000402088600020C8604FF48060086108467E
:1048D000FCF7A0FF1720FEF788FF04460CB1204626
:1048E000CFE7B64807601920B44948604020886087
:1048F0000020C8604FF4806008610846FCF78AFF1A
:104900001920FEF772FF04460CB12046B9E74FF0BC
:10491000FF30AB49086006FB05F0486090208860D6
:104920000020C8600861012048610846FCF79BFF31
:1049300001210802FCF75EFF0120FCF768FF06FB7F
:1049400005F14046FEF703FF20469AE710B5002424
:1049500000BFFEF7CCFE30B99B48006818B99948F3
:1049600000780028F5D09748007810B19548007875
:1049700010BD40F2FF50FCF7CEFF2046F8E7944808
:10498000406B00F4405008B1012070470020FCE764
:1049900010B5002400208E49886040F24C40C86069
:1049A0000C20FEF722FF0446204610BD7CB50446CD
:1049B00000250020019000908748008800047F496E
:1049C00008600D204860402088600020C8604FF4D7
:1049D000806008610846FCF71DFF7D48406B009031
:1049E00002E07B48406B0090009800F045000028F2
:1049F000F7D0009800F0040028B103250420FCF74C
:104A00008AFF28467CBD009800F0010028B10125EE
:104A10000120FCF780FF2846F4E7FCF715FF009023
:104A200000980D2802D010252846EBE740F2FF50F1
:104A3000FCF771FF0020FCF70BFF01900198C0F319
:104A40004320207065490198084008B92846D9E7F5
:104A5000019800F0004008B11C20D3E7019800F055
:104A6000804008B10920CDE7019800F0005008B15E
:104A70000A20C7E7019800F0805008B10B20C1E779
:104A8000019800F0006008B10C20BBE7019800F02D
:104A9000806008B10D20B5E7019800F0807008B182
:104AA0000E20AFE7019800F4000008B10F20A9E73D
:104AB000019800F4800008B11020A3E7019800F4E9
:104AC000001008B111209DE7019800F4801008B192
:104AD000122097E7019800F4002008B1132091E715
:104AE000019800F4802008B114208BE7019800F4AD
:104AF000003008B1152085E7019800F4803008B136
:104B000016207FE7019800F4004008B1172079E7EC
:104B1000019800F4804008B1182073E7019800F470
:104B2000005008B119206DE7019800F0080008B1A5
:104B30001A2067E7284665E72DE9FC4105460E4641
:104B40000024002700200190009025484068202183
:104B500001EA105018B925242046BDE8FC811C4804
:104B60004068C0B2801C1F49B1FBF0F001900020EA
:104B7000FCF76EFE00F0007010B10E242046ECE74A
:104B800014480068022801D16D0A760A11480068AD
:104B900038B110480068012803D00E480068022888
:104BA00042D10648056020200449486040208860C2
:104BB0000020C8604FF48060086115E0B014002048
:104BC000C414002074040020780400207004002025
:104BD00000800140680400206C04002008E0FFFD14
:104BE00018140020C0D401000846FCF713FE202052
:104BF000FEF7FBFD04460CB12046AEE738480660E0
:104C0000212037494860402088600020C8604FF468
:104C1000806008610846FCF7FDFD2120FEF7E5FDF8
:104C200004460CB1204698E700202D490860262054
:104C30004860402088600020C8604FF480600861B0
:104C40000846FCF7E7FD2620FEF7CFFD04460CB131
:104C5000204682E7002700E07F1C01988742FBD3B3
:104C60006846FFF7A3FE044603E06846FFF79EFE92
:104C700004463CB99DF800000728F6D09DF80000D6
:104C80000628F2D0204668E710B5164800680128CB
:104C90000BD100201449886040F24C40C8600C20C1
:104CA000FEF7A3FD1149087002E000200F490870CB
:104CB0004FF48070FCF73CFE00214FF48070FCF74D
:104CC00099FD01200A4908600848007810BD014696
:104CD000002002E04910421CD0B20129FAD17047ED
:104CE000B0140020700400200080014074040020F3
:104CF0007804002001B502E00098401E0090009862
:104D00000028F9D108BD08B501210802FCF71FFCF5
:104D100001216820FCF728FC10208DF803000320F7
:104D20008DF802000220ADF800006946FE48FCF74D
:104D3000F9F803208DF8020018208DF803004CF2DA
:104D40000370ADF800006946F848FCF7EBF84FF641
:104D50008070ADF800006946F348FCF7E3F81020D6
:104D6000ADF800006946F148FCF7DCF82020ADF80A
:104D700000006946ED48FCF7D5F88020ADF800004A
:104D80006946EA48FCF7CEF84FF40060ADF8000041
:104D90006946E648FCF7C6F810208DF803000320AA
:104DA0008DF802000220ADF800006946E048FCF7EB
:104DB000B9F80221DE48FCF764F908BD00B597B0E8
:104DC0000220019000200290052003900020049012
:104DD000059006904FF08050079006200890002024
:104DE000099008200A9010200B9000200C900E9043
:104DF0000F9010904FF4805011900020129013905B
:104E0000149001A81590169008A8FBF771FD0121D8
:104E10000620FBF7D5FE17B000BD10B50221C24831
:104E2000FCF72FF9C348FFF765FF0221BE48FCF7E6
:104E300026F9C048FFF75EFF10BD00B5CF204FF048
:104E4000C04108800020BC490880812008803020B3
:104E50000880ED204FF0C04108806420B6490880EA
:104E6000032008801220088081200880E8204FF06D
:104E7000C04108808520B049088010200880782033
:104E80000880CB20410708803920AB4908802C20BE
:104E90000880002008803420088002200880F72045
:104EA0004FF0C04108802020A3490880EA204FF03D
:104EB000C04108800020A04908800880B1204FF040
:104EC000C041088000209C4908801B200880B62033
:104ED000010708800A2098490880A2200880C02085
:104EE000C1050880352094490880C1204FF0C04199
:104EF0000880112090490880C5204FF0C0410880EB
:104F000045208D4908800880C7204FF0C0410880A7
:104F1000A22089490880F2204FF0C041088000207B
:104F200085490880262001070880012082490880E1
:104F3000E0204FF0C04108800F207F4908802620E4
:104F40000880242008800B2008800E20088009207B
:104F5000088054200880A8200880462008800C2063
:104F6000088017200880092008800F20088007206B
:104F7000088000200880E1204FF0C0410880002018
:104F80006D490880192008801B20088004200880B3
:104F900010200880072008802A20088047200880E9
:104FA00039200880032008800620088008803020EF
:104FB0000880382008800F200880362001070880EC
:104FC000C8205D4908802A204FF0C0410880002099
:104FD0005949088008800880EF2008802B2041076D
:104FE00008800020544908800880012008803F2064
:104FF00008803A204FF0C041088055204E49088073
:1050000011204FF0C04108804A48FFF773FE292065
:105010004FF0C041088000BD10B5FFF774FEFFF7E8
:10502000CDFEFFF7FAFEFFF708FF10BD012804D000
:1050300002281FD0032857D139E036210A071180F2
:10504000C8213D4A11802A214FF0C0421180002121
:10505000394A118011801180EF2111802B214A07DC
:1050600011800021344A11801180012111803F21DB
:10507000118039E036210A07118068212E4A1180FB
:105080002A214FF0C042118000212B4A118011804B
:10509000012111803F2111802B214A07118000211D
:1050A000254A118011801180EF2111801CE03621EA
:1050B0000A0711802821204A11802A214FF0C0427E
:1050C000118000211C4A11801180012111803F2193
:1050D00011802B214A0711800021174A118011806D
:1050E0001180EF21118000BF00BF2C21CA06118062
:1050F0007047F0B5059D00242A264FF0C0473E803A
:1051000006120D4F3E80C6B23E808618761EC6F34C
:105110000F263E808618761EF6B23E802B26770735
:105120003E800E12044F09E00018014000140140B7
:10513000000C0140FCBF0200000002603E80CEB2C5
:105140003E80CE18761EC6F30F263E80CE18761E01
:10515000F6B23E802C26F7063E8000BF02E0CC4E21
:105160003580641C02FB03F6A642F8D8F0BD2A2263
:105170004FF0C0431A800212C54B1A80C2B21A8087
:1051800002121A80C2B21A802B2253071A800A1206
:10519000BF4B1A80CAB21A800A121A80CAB21A8089
:1051A000704730B52A244FF0C0452C800412B84D0A
:1051B0002C80C4B22C808418641EC4F30F242C806D
:1051C0008418641EE4B22C802B2465072C800C12FA
:1051D000AF4D2C80CCB22C80CC18641EC4F30F24AD
:1051E0002C80CC18641EE4B22C802C24E5062C8084
:1051F00030BD70B505460E46144631462846FFF7C9
:10520000B6FF2C20C1060880A148048070BD10B5EF
:105210000021002200239E4801880188038802881B
:10522000C812C002941240EA441040EAE32010BDC4
:1052300070B504460D4629462046FFF798FF2E20FC
:105240004FF0C0410880FFF7E2FF0646304670BDD0
:105250002DE9F04F81468A4615461E46A5F12000ED
:105260001FFA80FB0C23062251464846FFF799FFA0
:105270002C20C1060880002419E00BEB4B00854967
:1052800001EB800010F8048000270CE008F001001A
:1052900010B17F48068002E000207D4908804FEA77
:1052A0006808781C87B2062FF0DB601C84B20C2CD7
:1052B000E3DBBDE8F08FF0B505460E4614461F4609
:1052C00013E0EA2D03DD002506F10C0086B2B6F5E9
:1052D0009A7F01DD0025002622783B46314628468C
:1052E000FFF7B6FFA81D85B2641C20780028E8D11E
:1052F000F0BD2DE9F047064688461446994600273A
:10530000002525463DB94B46302241463046FFF741
:105310009FFFBDE8F08703E00A20B5FBF0F57F1C96
:10532000002DF9D115E00A20B4FBF0F100FB11408B
:1053300000F1300A39467F1E062202FB0161891FF7
:1053400088B24B4652464146FFF782FF0A20B4FB23
:10535000F0F4002CE7D100BFDBE72DE9F04788B07F
:1053600081468A4616461F46002510231A46514696
:105370004846FFF716FF2C20C106088031466846D4
:10538000FEF72AF9002423E01DF814504FF6FF70B1
:1053900000EA05256000401C1DF8000005434FF0A1
:1053A000000810E005F4004010B13948078002E021
:1053B0000020374908804FF6FF7000EA450508F1E4
:1053C000010000F0FF08B8F1100FEBDB601CC4B265
:1053D000102CD9DB08B0BDE8F0872DE9F041044678
:1053E0000D4616461F4614E0E02C03DD002405F1AF
:1053F000100085B2B5F5987F01DD002400253B46FD
:10540000324629462046FFF7A8FFB61C04F11000DB
:1054100084B230780028E7D1BDE8F0812DE9F04171
:1054200005460E4614461F462CE020787E2814DCE4
:10543000EA2D03DD002506F10C0086B2B6F59A7F51
:1054400001DD0025002622783B4631462846FFF73D
:10545000FFFEA81D85B2641C14E0E02D03DD0025CD
:1054600006F1100086B2B6F5987F01DD0025002612
:105470003B46224631462846FFF76FFFA41C05F144
:10548000100085B220780028CFD1BDE8F08100005F
:1054900000000260DC9D000808B517208DF80000B0
:1054A00000208DF8010001208DF802008DF8030026
:1054B0006846FAF74EFF08BD08B501210920FCF740
:1054C00053F8FFF7E9FF4020ADF8000048208DF8C1
:1054D000030069460948FBF725FD06210120FBF77B
:1054E00037FE4020064908600020087108204871F6
:1054F000012088710846FBF72FF908BD000801401C
:105500007C04002008B501213C20FCF72DF8102078
:105510008DF8030003208DF802004FF48070ADF881
:10552000000069466E48FBF7FDFC4FF480716C4843
:10553000FBF7A5FD0820ADF8000069466948FBF7B8
:10554000F1FC2020ADF8000069466748FBF7EAFC53
:105550000C20ADF8000069466148FBF7E3FC202011
:10556000ADF8000069466148FBF7DCFC4FF47F4072
:10557000ADF8000004208DF8030003208DF8020030
:1055800069465948FBF7CEFC08205549143108609C
:1055900054491031086008BD10B500F0AFF8FFF7AE
:1055A000B1FF10BD08B501210420FBF7DDFF01208C
:1055B000ADF8000004208DF8030003208DF80200F0
:1055C00069464748FBF7AEFC08BD08B506208DF8D4
:1055D000000000208DF8010003208DF8020001205A
:1055E0008DF803006846FAF7B4FE08BD1CB500212B
:1055F0000846FBF7ADFD0120009000208DF8040067
:105600000C208DF8050001208DF806006846FBF798
:10561000A3F80120FBF7EFF81CBD10B5FFF7C2FFA0
:10562000FFF7E4FFFFF7D1FF10BD38B500240020DD
:1056300000908021122000F067F908B9002038BDE1
:105640000B220121684600F07FF908B90020F6E737
:105650009DF80000212814D100240DE0244A02EB1B
:1056600044025178224A12F8140000F04DF908B9AA
:105670000020E4E7601C84B21E4800788442EDDB21
:1056800001E00020DBE70120D9E770B50220FFF739
:10569000CDFC002420E0002619E000BF00252020DA
:1056A0001249486110480830006800F47F45202006
:1056B000086148610C4808300068C0F307200543C2
:1056C0002020086100BF0C480580701C86B2B6F52A
:1056D000A07FE2DB601C84B2F02CDCDB70BD00003C
:1056E0000008014000140140000C0140001001407E
:1056F000840400201E0500200000026008B501217E
:105700001020FBF731FFC020ADF8000003208DF81A
:10571000020014208DF803006946AA48FBF702FC3A
:1057200008BD4FF4C87001E0411E88B20028FBD1CB
:10573000704710B58021A348FBF7A1FC4021A14888
:10574000FBF79DFCFFF7EDFF80219E48FBF77DFCFA
:1057500008B9002010BD80219A48FBF792FCFFF7A2
:10576000E0FF80219748FBF770FC08B10020F1E7CB
:1057700080219448FBF785FCFFF7D3FF0120E9E780
:1057800010B540218F48FBF77CFCFFF7CAFF802152
:105790008C48FBF776FCFFF7C4FF40218948FBF7F4
:1057A0006EFCFFF7BEFF80218648FBF768FCFFF721
:1057B000B8FF10BD10B540218248FBF762FCFFF72F
:1057C000B0FF80217F48FBF75CFCFFF7AAFF402178
:1057D0007C48FBF754FCFFF7A4FF40217948FBF716
:1057E00050FCFFF79EFF10BD10B540217548FBF738
:1057F00048FCFFF796FF80217248FBF740FCFFF75B
:1058000090FF40216F48FBF73AFCFFF78AFF4021E9
:105810006C48FBF736FCFFF784FF10BD10B5402144
:105820006848FBF72EFCFFF77CFF80216548FBF7FB
:1058300026FCFFF776FF40216248FBF720FCFFF7CC
:1058400070FF80215F48FBF700FC28B140215D48D4
:10585000FBF717FC002010BD40215A48FBF711FC54
:105860000120F8E770B5044608251BE040215548A3
:10587000FBF707FCFFF755FF04F0800020B1802103
:105880005048FBF7FCFB03E080214E48FBF7F9FB97
:105890006006040EFFF745FF40214A48FBF7EFFB87
:1058A000FFF73FFF281EA5F10101CDB2DED1402157
:1058B0004448FBF7E6FB70BD70B508250024802145
:1058C0004048FBF7DCFB14E06006040E40213D4835
:1058D000FBF7D7FBFFF725FF40213A48FBF7CFFB4B
:1058E000FFF71FFF80213748FBF7AFFB08B144F0FB
:1058F0000104281EA5F10101CDB2E5D140213148B6
:10590000FBF7BFFB204670BD70B504460D46FFF7A0
:1059100010FF08B9002070BD4220FFF7A3FFFFF77A
:105920007DFF18B9FFF72CFF0020F4E7E0B2FFF786
:1059300099FFFFF773FF2846FFF794FFFFF76EFF0D
:10594000FFF71EFF0120E6E770B505460C46164638
:10595000FFF7EFFE08B9002070BD4220FFF782FF7D
:10596000FFF75CFF18B9FFF70BFF0020F4E73046A4
:10597000FFF778FFFFF752FFFFF702FFFFF7D9FEAF
:1059800008B90020E8E74320FFF76CFFFFF746FF68
:1059900018B9FFF7F5FE0020DEE70CE0FFF78CFFFB
:1059A0002870012C02D1FFF71FFF01E0FFF702FF73
:1059B0006D1C601E84B2002CF0D1FFF7E1FE0120C7
:1059C000CAE700000010014008B501211020FBF7D4
:1059D000CBFD0220ADF8000010208DF8030003205D
:1059E0008DF8020069460B48FBF79CFA0420ADF8DD
:1059F000000069460748FBF795FA0820ADF800005B
:105A000069460448FBF78EFA0E210248FBF737FB84
:105A100008BD00000010014000E0401E0028FCD13D
:105A20007047000000B587B001212420FBF79CFDE2
:105A300001210803FBF798FD2020ADF804000320A6
:105A40008DF8060018208DF8070001A9F848FBF72B
:105A500069FA4020ADF8040001A9F548FBF762FAA5
:105A60008020ADF8040001A9F148FBF75BFA102093
:105A7000ADF804008DF8070001A9ED48FBF752FAD4
:105A80001021EB48FBF7FBFA0020ADF808004FF4BB
:105A90008270ADF80A000020ADF80C000220ADF8CD
:105AA0000E000120ADF810004002ADF812000820F1
:105AB000ADF814000020ADF816000720ADF818006E
:105AC00002A9DC48FBF768FF0121DA48FCF709F876
:105AD00007B000BD10B5044600BF0221D548FCF751
